{
  "contractName": "Dex",
  "abi": [
    {
      "inputs": [],
      "stateMutability": "payable",
      "type": "constructor",
      "payable": true
    },
    {
      "inputs": [],
      "name": "name",
      "outputs": [
        {
          "internalType": "string",
          "name": "",
          "type": "string"
        }
      ],
      "stateMutability": "view",
      "type": "function",
      "constant": true
    },
    {
      "inputs": [],
      "name": "uniswapRouter",
      "outputs": [
        {
          "internalType": "contract IUniswapV2Router02",
          "name": "",
          "type": "address"
        }
      ],
      "stateMutability": "view",
      "type": "function",
      "constant": true
    },
    {
      "inputs": [
        {
          "internalType": "uint256",
          "name": "ethAmount",
          "type": "uint256"
        }
      ],
      "name": "swapEthForUSDC",
      "outputs": [],
      "stateMutability": "payable",
      "type": "function",
      "payable": true
    },
    {
      "inputs": [
        {
          "internalType": "uint256",
          "name": "tokenAmount",
          "type": "uint256"
        }
      ],
      "name": "swapUSDCForEth",
      "outputs": [],
      "stateMutability": "payable",
      "type": "function",
      "payable": true
    }
  ],
  "bytecode": "0x60c06040526003608081905262088caf60eb1b60a09081526100249160009190610050565b50600180546001600160a01b031916737a250d5630b4cf539739df2c5dacb4c659f2488d1790556100eb565b828054600181600116156101000203166002900490600052602060002090601f016020900481019282601f1061009157805160ff19168380011785556100be565b828001600101855582156100be579182015b828111156100be5782518255916020019190600101906100a3565b506100ca9291506100ce565b5090565b6100e891905b808211156100ca57600081556001016100d4565b90565b610998806100fa6000396000f3fe60806040526004361061003f5760003560e01c806306fdde03146100445780632cbea2b0146100ce578063735de9f7146100ed578063c52280aa1461011e575b600080fd5b34801561005057600080fd5b5061005961013b565b6040805160208082528351818301528351919283929083019185019080838360005b8381101561009357818101518382015260200161007b565b50505050905090810190601f1680156100c05780820380516001836020036101000a031916815260200191505b509250505060405180910390f35b6100eb600480360360208110156100e457600080fd5b50356101c9565b005b3480156100f957600080fd5b506101026104c3565b604080516001600160a01b039092168252519081900360200190f35b6100eb6004803603602081101561013457600080fd5b50356104d2565b6000805460408051602060026001851615610100026000190190941693909304601f810184900484028201840190925281815292918301828280156101c15780601f10610196576101008083540402835291602001916101c1565b820191906000526020600020905b8154815290600101906020018083116101a457829003601f168201915b505050505081565b6096420160606101d7610862565b6001546040805163d06ca61f60e01b815260048101878152602482019283528451604483015284519495506000946001600160a01b039094169363d06ca61f938993889392606490910190602080860191028083838c5b8381101561024657818101518382015260200161022e565b50505050905001935050505060006040518083038186803b15801561026a57600080fd5b505afa15801561027e573d6000803e3d6000fd5b505050506040513d6000823e601f3d908101601f1916820160405260208110156102a757600080fd5b81019080805160405193929190846401000000008211156102c757600080fd5b9083019060208201858111156102dc57600080fd5b82518660208202830111640100000000821117156102f957600080fd5b82525081516020918201928201910280838360005b8381101561032657818101518382015260200161030e565b5050505090500160405250505060018151811061033f57fe5b602090810291909101810151600154604051637ff36ab560e01b8152600481018381523360448301819052606483018990526080602484019081528851608485015288519597506001600160a01b0390941695637ff36ab595349589958b958d94909360a490920191878201910280838360005b838110156103cb5781810151838201526020016103b3565b50505050905001955050505050506000604051808303818588803b1580156103f257600080fd5b505af1158015610406573d6000803e3d6000fd5b50505050506040513d6000823e601f3d908101601f19168201604052602081101561043057600080fd5b810190808051604051939291908464010000000082111561045057600080fd5b90830190602082018581111561046557600080fd5b825186602082028301116401000000008211171561048257600080fd5b82525081516020918201928201910280838360005b838110156104af578181015183820152602001610497565b505050509050016040525050505050505050565b6001546001600160a01b031681565b6096420160606104e0610862565b6001546040805163d06ca61f60e01b815260048101878152602482019283528451604483015284519495506000946001600160a01b039094169363d06ca61f938993889392606490910190602080860191028083838c5b8381101561054f578181015183820152602001610537565b50505050905001935050505060006040518083038186803b15801561057357600080fd5b505afa158015610587573d6000803e3d6000fd5b505050506040513d6000823e601f3d908101601f1916820160405260208110156105b057600080fd5b81019080805160405193929190846401000000008211156105d057600080fd5b9083019060208201858111156105e557600080fd5b825186602082028301116401000000008211171561060257600080fd5b82525081516020918201928201910280838360005b8381101561062f578181015183820152602001610617565b5050505090500160405250505060018151811061064857fe5b602090810291909101810151604080516323b872dd60e01b815233600482015230602482015260448101889052905191935073a0b86991c6218b36c1d19d4a2e9eb0ce3606eb48926323b872dd926064808401938290030181600087803b1580156106b257600080fd5b505af11580156106c6573d6000803e3d6000fd5b505050506040513d60208110156106dc57600080fd5b50506040805163095ea7b360e01b8152737a250d5630b4cf539739df2c5dacb4c659f2488d600482015260248101869052905173a0b86991c6218b36c1d19d4a2e9eb0ce3606eb489163095ea7b39160448083019260209291908290030181600087803b15801561074c57600080fd5b505af1158015610760573d6000803e3d6000fd5b505050506040513d602081101561077657600080fd5b50506001546040516318cbafe560e01b8152600481018681526024820184905233606483018190526084830187905260a060448401908152865160a485015286516001600160a01b03909516946318cbafe5948a9488948a9490938c9360c401906020878101910280838360005b838110156107fc5781810151838201526020016107e4565b505050509050019650505050505050600060405180830381600087803b15801561082557600080fd5b505af1158015610839573d6000803e3d6000fd5b505050506040513d6000823e601f3d908101601f19168201604052602081101561043057600080fd5b6040805160028082526060808301845292839291906020830190803683375050600154604080516315ab88c960e31b815290519394506001600160a01b039091169263ad5c464892506004808301926020929190829003018186803b1580156108ca57600080fd5b505afa1580156108de573d6000803e3d6000fd5b505050506040513d60208110156108f457600080fd5b50518151829060009061090357fe5b60200260200101906001600160a01b031690816001600160a01b03168152505073a0b86991c6218b36c1d19d4a2e9eb0ce3606eb488160018151811061094557fe5b6001600160a01b039092166020928302919091019091015290509056fea26469706673582212201fa342ae02396b077f9d82fe0e9c7a61ff044c181607f3be706c35dce9ff20b664736f6c63430006060033",
  "immutableReferences": {},
  "source": "pragma solidity 0.6.6;\n\nimport '@uniswap/v2-periphery/contracts/UniswapV2Router02.sol';\n\ncontract Dex {\n  string public name = \"Dex\";\n  address internal constant UNISWAP_V2_ROUTER = 0x7a250d5630B4cF539739dF2C5dAcb4c659F2488D;\n  IUniswapV2Router02 public uniswapRouter;\n  address internal constant USDC = 0xA0b86991c6218b36c1d19D4a2e9Eb0cE3606eB48;\n\n  constructor() public payable {\n    uniswapRouter = IUniswapV2Router02(UNISWAP_V2_ROUTER);\n  }\n\n  function swapEthForUSDC(uint ethAmount) external payable {\n    uint deadline = block.timestamp + 150;\n    address[] memory path = getEthForUSDCPath();\n    uint amountOutMin = uniswapRouter.getAmountsOut(ethAmount, path)[1];\n    uniswapRouter.swapExactETHForTokens{value: msg.value}(amountOutMin, path, msg.sender, deadline);\n  }\n\n  function swapUSDCForEth(uint tokenAmount) external payable {\n    uint deadline = block.timestamp + 150;\n    address[] memory path = getEthForUSDCPath();\n    uint amountOutMin = uniswapRouter.getAmountsOut(tokenAmount, path)[1];\n    IERC20(USDC).transferFrom(msg.sender, address(this), tokenAmount);\n    IERC20(USDC).approve(UNISWAP_V2_ROUTER, tokenAmount);\n    uniswapRouter.swapExactTokensForETH(tokenAmount, amountOutMin, path, msg.sender, deadline);\n  }\n\n  function getEthForUSDCPath() private view returns (address[] memory) {\n    address[] memory path = new address[](2);\n    path[0] = uniswapRouter.WETH();\n    path[1] = USDC;\n\n    return path;\n  }\n\n  function getUSDCForEthPath() private view returns (address[] memory) {\n    address[] memory path = new address[](2);\n    path[0] = USDC;\n    path[1] = uniswapRouter.WETH();\n\n    return path;\n  }\n}",
  "sourcePath": "/home/davaux/demos/uniswap-v2-defi-app/contracts/Dex.sol",
  "compiler": {
    "name": "solc",
    "version": "0.6.6+commit.6c089d02.Emscripten.clang"
  },
  "schemaVersion": "3.4.4",
  "updatedAt": "2022-01-21T15:54:44.376Z",
  "networkType": "ethereum",
  "devdoc": {
    "methods": {}
  },
  "userdoc": {
    "methods": {}
  }
}